{
    "contractName": "ERC721Token",
    "abi": [
        {
            "anonymous": false,
            "inputs": [
                {
                    "indexed": true,
                    "internalType": "address",
                    "name": "owner",
                    "type": "address"
                },
                {
                    "indexed": true,
                    "internalType": "address",
                    "name": "approved",
                    "type": "address"
                },
                {
                    "indexed": true,
                    "internalType": "uint256",
                    "name": "tokenId",
                    "type": "uint256"
                }
            ],
            "name": "Approval",
            "type": "event"
        },
        {
            "anonymous": false,
            "inputs": [
                {
                    "indexed": true,
                    "internalType": "address",
                    "name": "owner",
                    "type": "address"
                },
                {
                    "indexed": true,
                    "internalType": "address",
                    "name": "operator",
                    "type": "address"
                },
                {
                    "indexed": false,
                    "internalType": "bool",
                    "name": "approved",
                    "type": "bool"
                }
            ],
            "name": "ApprovalForAll",
            "type": "event"
        },
        {
            "anonymous": false,
            "inputs": [
                {
                    "indexed": false,
                    "internalType": "uint8",
                    "name": "version",
                    "type": "uint8"
                }
            ],
            "name": "Initialized",
            "type": "event"
        },
        {
            "anonymous": false,
            "inputs": [
                {
                    "indexed": true,
                    "internalType": "address",
                    "name": "previousOwner",
                    "type": "address"
                },
                {
                    "indexed": true,
                    "internalType": "address",
                    "name": "newOwner",
                    "type": "address"
                }
            ],
            "name": "OwnershipTransferred",
            "type": "event"
        },
        {
            "anonymous": false,
            "inputs": [
                {
                    "indexed": true,
                    "internalType": "address",
                    "name": "from",
                    "type": "address"
                },
                {
                    "indexed": true,
                    "internalType": "address",
                    "name": "to",
                    "type": "address"
                },
                {
                    "indexed": true,
                    "internalType": "uint256",
                    "name": "tokenId",
                    "type": "uint256"
                }
            ],
            "name": "Transfer",
            "type": "event"
        },
        {
            "inputs": [
                {
                    "internalType": "address",
                    "name": "to",
                    "type": "address"
                },
                {
                    "internalType": "uint256",
                    "name": "tokenId",
                    "type": "uint256"
                }
            ],
            "name": "approve",
            "outputs": [],
            "stateMutability": "nonpayable",
            "type": "function"
        },
        {
            "inputs": [
                {
                    "internalType": "address",
                    "name": "owner",
                    "type": "address"
                }
            ],
            "name": "balanceOf",
            "outputs": [
                {
                    "internalType": "uint256",
                    "name": "",
                    "type": "uint256"
                }
            ],
            "stateMutability": "view",
            "type": "function"
        },
        {
            "inputs": [
                {
                    "internalType": "uint256",
                    "name": "tokenId",
                    "type": "uint256"
                }
            ],
            "name": "burn",
            "outputs": [],
            "stateMutability": "nonpayable",
            "type": "function"
        },
        {
            "inputs": [
                {
                    "internalType": "uint256",
                    "name": "tokenId",
                    "type": "uint256"
                }
            ],
            "name": "getApproved",
            "outputs": [
                {
                    "internalType": "address",
                    "name": "",
                    "type": "address"
                }
            ],
            "stateMutability": "view",
            "type": "function"
        },
        {
            "inputs": [],
            "name": "initialize",
            "outputs": [],
            "stateMutability": "nonpayable",
            "type": "function"
        },
        {
            "inputs": [
                {
                    "internalType": "address",
                    "name": "owner",
                    "type": "address"
                },
                {
                    "internalType": "address",
                    "name": "operator",
                    "type": "address"
                }
            ],
            "name": "isApprovedForAll",
            "outputs": [
                {
                    "internalType": "bool",
                    "name": "",
                    "type": "bool"
                }
            ],
            "stateMutability": "view",
            "type": "function"
        },
        {
            "inputs": [
                {
                    "internalType": "address",
                    "name": "to",
                    "type": "address"
                },
                {
                    "internalType": "uint256",
                    "name": "numberOfTokens",
                    "type": "uint256"
                }
            ],
            "name": "mint",
            "outputs": [],
            "stateMutability": "nonpayable",
            "type": "function"
        },
        {
            "inputs": [],
            "name": "name",
            "outputs": [
                {
                    "internalType": "string",
                    "name": "",
                    "type": "string"
                }
            ],
            "stateMutability": "view",
            "type": "function"
        },
        {
            "inputs": [],
            "name": "owner",
            "outputs": [
                {
                    "internalType": "address",
                    "name": "",
                    "type": "address"
                }
            ],
            "stateMutability": "view",
            "type": "function"
        },
        {
            "inputs": [
                {
                    "internalType": "uint256",
                    "name": "tokenId",
                    "type": "uint256"
                }
            ],
            "name": "ownerOf",
            "outputs": [
                {
                    "internalType": "address",
                    "name": "",
                    "type": "address"
                }
            ],
            "stateMutability": "view",
            "type": "function"
        },
        {
            "inputs": [],
            "name": "renounceOwnership",
            "outputs": [],
            "stateMutability": "nonpayable",
            "type": "function"
        },
        {
            "inputs": [
                {
                    "internalType": "address",
                    "name": "from",
                    "type": "address"
                },
                {
                    "internalType": "address",
                    "name": "to",
                    "type": "address"
                },
                {
                    "internalType": "uint256",
                    "name": "tokenId",
                    "type": "uint256"
                }
            ],
            "name": "safeTransferFrom",
            "outputs": [],
            "stateMutability": "nonpayable",
            "type": "function"
        },
        {
            "inputs": [
                {
                    "internalType": "address",
                    "name": "from",
                    "type": "address"
                },
                {
                    "internalType": "address",
                    "name": "to",
                    "type": "address"
                },
                {
                    "internalType": "uint256",
                    "name": "tokenId",
                    "type": "uint256"
                },
                {
                    "internalType": "bytes",
                    "name": "data",
                    "type": "bytes"
                }
            ],
            "name": "safeTransferFrom",
            "outputs": [],
            "stateMutability": "nonpayable",
            "type": "function"
        },
        {
            "inputs": [
                {
                    "internalType": "address",
                    "name": "operator",
                    "type": "address"
                },
                {
                    "internalType": "bool",
                    "name": "approved",
                    "type": "bool"
                }
            ],
            "name": "setApprovalForAll",
            "outputs": [],
            "stateMutability": "nonpayable",
            "type": "function"
        },
        {
            "inputs": [
                {
                    "internalType": "bytes4",
                    "name": "interfaceId",
                    "type": "bytes4"
                }
            ],
            "name": "supportsInterface",
            "outputs": [
                {
                    "internalType": "bool",
                    "name": "",
                    "type": "bool"
                }
            ],
            "stateMutability": "view",
            "type": "function"
        },
        {
            "inputs": [],
            "name": "symbol",
            "outputs": [
                {
                    "internalType": "string",
                    "name": "",
                    "type": "string"
                }
            ],
            "stateMutability": "view",
            "type": "function"
        },
        {
            "inputs": [
                {
                    "internalType": "uint256",
                    "name": "tokenId",
                    "type": "uint256"
                }
            ],
            "name": "tokenURI",
            "outputs": [
                {
                    "internalType": "string",
                    "name": "",
                    "type": "string"
                }
            ],
            "stateMutability": "view",
            "type": "function"
        },
        {
            "inputs": [
                {
                    "internalType": "address",
                    "name": "from",
                    "type": "address"
                },
                {
                    "internalType": "address",
                    "name": "to",
                    "type": "address"
                },
                {
                    "internalType": "uint256",
                    "name": "tokenId",
                    "type": "uint256"
                }
            ],
            "name": "transferFrom",
            "outputs": [],
            "stateMutability": "nonpayable",
            "type": "function"
        },
        {
            "inputs": [
                {
                    "internalType": "address",
                    "name": "newOwner",
                    "type": "address"
                }
            ],
            "name": "transferOwnership",
            "outputs": [],
            "stateMutability": "nonpayable",
            "type": "function"
        }
    ],
    "bytecode": "608060405234801561001057600080fd5b506118f5806100206000396000f3fe608060405234801561001057600080fd5b50600436106101215760003560e01c806370a08231116100ad578063a22cb46511610071578063a22cb4651461024c578063b88d4fde1461025f578063c87b56dd14610272578063e985e9c514610285578063f2fde38b146102c157600080fd5b806370a0823114610202578063715018a6146102235780638129fc1c1461022b5780638da5cb5b1461023357806395d89b411461024457600080fd5b806323b872dd116100f457806323b872dd146101a357806340c10f19146101b657806342842e0e146101c957806342966c68146101dc5780636352211e146101ef57600080fd5b806301ffc9a71461012657806306fdde031461014e578063081812fc14610163578063095ea7b31461018e575b600080fd5b610139610134366004611301565b6102d4565b60405190151581526020015b60405180910390f35b610156610326565b604051610145919061136e565b610176610171366004611381565b6103b8565b6040516001600160a01b039091168152602001610145565b6101a161019c3660046113b6565b6103df565b005b6101a16101b13660046113e0565b6104f9565b6101a16101c43660046113b6565b61052a565b6101a16101d73660046113e0565b61056d565b6101a16101ea366004611381565b610588565b6101766101fd366004611381565b61059c565b61021561021036600461141c565b6105fc565b604051908152602001610145565b6101a1610682565b6101a1610696565b6097546001600160a01b0316610176565b6101566107f2565b6101a161025a366004611437565b610801565b6101a161026d366004611489565b610810565b610156610280366004611381565b610848565b610139610293366004611565565b6001600160a01b039182166000908152606a6020908152604080832093909416825291909152205460ff1690565b6101a16102cf36600461141c565b6108bc565b60006001600160e01b031982166380ac58cd60e01b148061030557506001600160e01b03198216635b5e139f60e01b145b8061032057506301ffc9a760e01b6001600160e01b03198316145b92915050565b60606065805461033590611598565b80601f016020809104026020016040519081016040528092919081815260200182805461036190611598565b80156103ae5780601f10610383576101008083540402835291602001916103ae565b820191906000526020600020905b81548152906001019060200180831161039157829003601f168201915b5050505050905090565b60006103c382610932565b506000908152606960205260409020546001600160a01b031690565b60006103ea8261059c565b9050806001600160a01b0316836001600160a01b03160361045c5760405162461bcd60e51b815260206004820152602160248201527f4552433732313a20617070726f76616c20746f2063757272656e74206f776e656044820152603960f91b60648201526084015b60405180910390fd5b336001600160a01b038216148061047857506104788133610293565b6104ea5760405162461bcd60e51b815260206004820152603d60248201527f4552433732313a20617070726f76652063616c6c6572206973206e6f7420746f60448201527f6b656e206f776e6572206f7220617070726f76656420666f7220616c6c0000006064820152608401610453565b6104f48383610991565b505050565b61050333826109ff565b61051f5760405162461bcd60e51b8152600401610453906115d2565b6104f4838383610a7e565b60005b818110156104f457600061054060c95490565b905061054c8482610be2565b61055a60c980546001019055565b50806105658161161f565b91505061052d565b6104f483838360405180602001604052806000815250610810565b610590610d6d565b61059981610dc7565b50565b6000818152606760205260408120546001600160a01b0316806103205760405162461bcd60e51b8152602060048201526018602482015277115490cdcc8c4e881a5b9d985b1a59081d1bdad95b88125160421b6044820152606401610453565b60006001600160a01b0382166106665760405162461bcd60e51b815260206004820152602960248201527f4552433732313a2061646472657373207a65726f206973206e6f7420612076616044820152683634b21037bbb732b960b91b6064820152608401610453565b506001600160a01b031660009081526068602052604090205490565b61068a610d6d565b6106946000610e5c565b565b600054610100900460ff16158080156106b65750600054600160ff909116105b806106d05750303b1580156106d0575060005460ff166001145b6107335760405162461bcd60e51b815260206004820152602e60248201527f496e697469616c697a61626c653a20636f6e747261637420697320616c72656160448201526d191e481a5b9a5d1a585b1a5e995960921b6064820152608401610453565b6000805460ff191660011790558015610756576000805461ff0019166101001790555b6107a26040518060400160405280600b81526020016a546573742045524337323160a81b815250604051806040016040528060078152602001665445524337323160c81b815250610eae565b6107aa610edf565b8015610599576000805461ff0019169055604051600181527f7f26b83ff96e1f2b6a682f133852f6798a09c465da95921460cefb38474024989060200160405180910390a150565b60606066805461033590611598565b61080c338383610f0e565b5050565b61081a33836109ff565b6108365760405162461bcd60e51b8152600401610453906115d2565b61084284848484610fdc565b50505050565b606061085382610932565b600061086a60408051602081019091526000815290565b9050600081511161088a57604051806020016040528060008152506108b5565b806108948461100f565b6040516020016108a5929190611646565b6040516020818303038152906040525b9392505050565b6108c4610d6d565b6001600160a01b0381166109295760405162461bcd60e51b815260206004820152602660248201527f4f776e61626c653a206e6577206f776e657220697320746865207a65726f206160448201526564647265737360d01b6064820152608401610453565b61059981610e5c565b6000818152606760205260409020546001600160a01b03166105995760405162461bcd60e51b8152602060048201526018602482015277115490cdcc8c4e881a5b9d985b1a59081d1bdad95b88125160421b6044820152606401610453565b600081815260696020526040902080546001600160a01b0319166001600160a01b03841690811790915581906109c68261059c565b6001600160a01b03167f8c5be1e5ebec7d5bd14f71427d1e84f3dd0314c0f7b2291e5b200ac8c7c3b92560405160405180910390a45050565b600080610a0b8361059c565b9050806001600160a01b0316846001600160a01b03161480610a5257506001600160a01b038082166000908152606a602090815260408083209388168352929052205460ff165b80610a765750836001600160a01b0316610a6b846103b8565b6001600160a01b0316145b949350505050565b826001600160a01b0316610a918261059c565b6001600160a01b031614610ab75760405162461bcd60e51b815260040161045390611675565b6001600160a01b038216610b195760405162461bcd60e51b8152602060048201526024808201527f4552433732313a207472616e7366657220746f20746865207a65726f206164646044820152637265737360e01b6064820152608401610453565b826001600160a01b0316610b2c8261059c565b6001600160a01b031614610b525760405162461bcd60e51b815260040161045390611675565b600081815260696020908152604080832080546001600160a01b03199081169091556001600160a01b0387811680865260688552838620805460001901905590871680865283862080546001019055868652606790945282852080549092168417909155905184937fddf252ad1be2c89b69c2b068fc378daa952ba7f163c4a11628f55a4df523b3ef91a4505050565b6001600160a01b038216610c385760405162461bcd60e51b815260206004820181905260248201527f4552433732313a206d696e7420746f20746865207a65726f20616464726573736044820152606401610453565b6000818152606760205260409020546001600160a01b031615610c9d5760405162461bcd60e51b815260206004820152601c60248201527f4552433732313a20746f6b656e20616c7265616479206d696e746564000000006044820152606401610453565b6000818152606760205260409020546001600160a01b031615610d025760405162461bcd60e51b815260206004820152601c60248201527f4552433732313a20746f6b656e20616c7265616479206d696e746564000000006044820152606401610453565b6001600160a01b038216600081815260686020908152604080832080546001019055848352606790915280822080546001600160a01b0319168417905551839291907fddf252ad1be2c89b69c2b068fc378daa952ba7f163c4a11628f55a4df523b3ef908290a45050565b6097546001600160a01b031633146106945760405162461bcd60e51b815260206004820181905260248201527f4f776e61626c653a2063616c6c6572206973206e6f7420746865206f776e65726044820152606401610453565b6000610dd28261059c565b9050610ddd8261059c565b600083815260696020908152604080832080546001600160a01b03199081169091556001600160a01b0385168085526068845282852080546000190190558785526067909352818420805490911690555192935084927fddf252ad1be2c89b69c2b068fc378daa952ba7f163c4a11628f55a4df523b3ef908390a45050565b609780546001600160a01b038381166001600160a01b0319831681179093556040519116919082907f8be0079c531659141344cd1fd0a4f28419497f9722a3daafe3b4186f6b6457e090600090a35050565b600054610100900460ff16610ed55760405162461bcd60e51b8152600401610453906116ba565b61080c82826110a2565b600054610100900460ff16610f065760405162461bcd60e51b8152600401610453906116ba565b6106946110e2565b816001600160a01b0316836001600160a01b031603610f6f5760405162461bcd60e51b815260206004820152601960248201527f4552433732313a20617070726f766520746f2063616c6c6572000000000000006044820152606401610453565b6001600160a01b038381166000818152606a6020908152604080832094871680845294825291829020805460ff191686151590811790915591519182527f17307eab39ab6107e8899845ad3d59bd9653f200f220920489ca2b5937696c31910160405180910390a3505050565b610fe7848484610a7e565b610ff384848484611112565b6108425760405162461bcd60e51b815260040161045390611705565b6060600061101c83611213565b600101905060008167ffffffffffffffff81111561103c5761103c611473565b6040519080825280601f01601f191660200182016040528015611066576020820181803683370190505b5090508181016020015b600019016f181899199a1a9b1b9c1cb0b131b232b360811b600a86061a8153600a850494508461107057509392505050565b600054610100900460ff166110c95760405162461bcd60e51b8152600401610453906116ba565b60656110d583826117a5565b5060666104f482826117a5565b600054610100900460ff166111095760405162461bcd60e51b8152600401610453906116ba565b61069433610e5c565b60006001600160a01b0384163b1561120857604051630a85bd0160e11b81526001600160a01b0385169063150b7a0290611156903390899088908890600401611865565b6020604051808303816000875af1925050508015611191575060408051601f3d908101601f1916820190925261118e918101906118a2565b60015b6111ee573d8080156111bf576040519150601f19603f3d011682016040523d82523d6000602084013e6111c4565b606091505b5080516000036111e65760405162461bcd60e51b815260040161045390611705565b805181602001fd5b6001600160e01b031916630a85bd0160e11b149050610a76565b506001949350505050565b60008072184f03e93ff9f4daa797ed6e38ed64bf6a1f0160401b83106112525772184f03e93ff9f4daa797ed6e38ed64bf6a1f0160401b830492506040015b6d04ee2d6d415b85acef8100000000831061127e576d04ee2d6d415b85acef8100000000830492506020015b662386f26fc10000831061129c57662386f26fc10000830492506010015b6305f5e10083106112b4576305f5e100830492506008015b61271083106112c857612710830492506004015b606483106112da576064830492506002015b600a83106103205760010192915050565b6001600160e01b03198116811461059957600080fd5b60006020828403121561131357600080fd5b81356108b5816112eb565b60005b83811015611339578181015183820152602001611321565b50506000910152565b6000815180845261135a81602086016020860161131e565b601f01601f19169290920160200192915050565b6020815260006108b56020830184611342565b60006020828403121561139357600080fd5b5035919050565b80356001600160a01b03811681146113b157600080fd5b919050565b600080604083850312156113c957600080fd5b6113d28361139a565b946020939093013593505050565b6000806000606084860312156113f557600080fd5b6113fe8461139a565b925061140c6020850161139a565b9150604084013590509250925092565b60006020828403121561142e57600080fd5b6108b58261139a565b6000806040838503121561144a57600080fd5b6114538361139a565b91506020830135801515811461146857600080fd5b809150509250929050565b634e487b7160e01b600052604160045260246000fd5b6000806000806080858703121561149f57600080fd5b6114a88561139a565b93506114b66020860161139a565b925060408501359150606085013567ffffffffffffffff808211156114da57600080fd5b818701915087601f8301126114ee57600080fd5b81358181111561150057611500611473565b604051601f8201601f19908116603f0116810190838211818310171561152857611528611473565b816040528281528a602084870101111561154157600080fd5b82602086016020830137600060208483010152809550505050505092959194509250565b6000806040838503121561157857600080fd5b6115818361139a565b915061158f6020840161139a565b90509250929050565b600181811c908216806115ac57607f821691505b6020821081036115cc57634e487b7160e01b600052602260045260246000fd5b50919050565b6020808252602d908201527f4552433732313a2063616c6c6572206973206e6f7420746f6b656e206f776e6560408201526c1c881bdc88185c1c1c9bdd9959609a1b606082015260800190565b60006001820161163f57634e487b7160e01b600052601160045260246000fd5b5060010190565b6000835161165881846020880161131e565b83519083019061166c81836020880161131e565b01949350505050565b60208082526025908201527f4552433732313a207472616e736665722066726f6d20696e636f72726563742060408201526437bbb732b960d91b606082015260800190565b6020808252602b908201527f496e697469616c697a61626c653a20636f6e7472616374206973206e6f74206960408201526a6e697469616c697a696e6760a81b606082015260800190565b60208082526032908201527f4552433732313a207472616e7366657220746f206e6f6e20455243373231526560408201527131b2b4bb32b91034b6b83632b6b2b73a32b960711b606082015260800190565b601f8211156104f457600081815260208120601f850160051c8101602086101561177e5750805b601f850160051c820191505b8181101561179d5782815560010161178a565b505050505050565b815167ffffffffffffffff8111156117bf576117bf611473565b6117d3816117cd8454611598565b84611757565b602080601f83116001811461180857600084156117f05750858301515b600019600386901b1c1916600185901b17855561179d565b600085815260208120601f198616915b8281101561183757888601518255948401946001909101908401611818565b50858210156118555787850151600019600388901b60f8161c191681555b5050505050600190811b01905550565b6001600160a01b038581168252841660208201526040810183905260806060820181905260009061189890830184611342565b9695505050505050565b6000602082840312156118b457600080fd5b81516108b5816112eb56fea264697066735822122010cbc35e898e3e5857bedd0d4da2a7127221fdd5a8dd16aadce0c0dea58abaa364736f6c63430008130033",
    "sourcePath": "f:/TERC721/contracts/TERC721.sol",
    "compiler": {
        "name": "solc",
        "version": "0.8.19+commit.7dd6d404"
    },
    "functionHashes": {
        "approve(address,uint256)": "095ea7b3",
        "balanceOf(address)": "70a08231",
        "burn(uint256)": "42966c68",
        "getApproved(uint256)": "081812fc",
        "initialize()": "8129fc1c",
        "isApprovedForAll(address,address)": "e985e9c5",
        "mint(address,uint256)": "40c10f19",
        "name()": "06fdde03",
        "owner()": "8da5cb5b",
        "ownerOf(uint256)": "6352211e",
        "renounceOwnership()": "715018a6",
        "safeTransferFrom(address,address,uint256)": "42842e0e",
        "safeTransferFrom(address,address,uint256,bytes)": "b88d4fde",
        "setApprovalForAll(address,bool)": "a22cb465",
        "supportsInterface(bytes4)": "01ffc9a7",
        "symbol()": "95d89b41",
        "tokenURI(uint256)": "c87b56dd",
        "transferFrom(address,address,uint256)": "23b872dd",
        "transferOwnership(address)": "f2fde38b"
    },
    "gasEstimates": {
        "creation": {
            "codeDepositCost": "1277800",
            "executionCost": "1329",
            "totalCost": "1279129"
        },
        "external": {
            "approve(address,uint256)": "infinite",
            "balanceOf(address)": "2612",
            "burn(uint256)": "infinite",
            "getApproved(uint256)": "4792",
            "initialize()": "infinite",
            "isApprovedForAll(address,address)": "infinite",
            "mint(address,uint256)": "infinite",
            "name()": "infinite",
            "owner()": "2420",
            "ownerOf(uint256)": "2649",
            "renounceOwnership()": "infinite",
            "safeTransferFrom(address,address,uint256)": "infinite",
            "safeTransferFrom(address,address,uint256,bytes)": "infinite",
            "setApprovalForAll(address,bool)": "26705",
            "supportsInterface(bytes4)": "534",
            "symbol()": "infinite",
            "tokenURI(uint256)": "infinite",
            "transferFrom(address,address,uint256)": "infinite",
            "transferOwnership(address)": "28446"
        }
    }
}